{
  "_format": "hh-sol-artifact-1",
  "contractName": "Domains",
  "sourceName": "contracts/Domains.sol",
  "abi": [
    {
      "inputs": [
        {
          "internalType": "string",
          "name": "_tld",
          "type": "string"
        }
      ],
      "stateMutability": "payable",
      "type": "constructor"
    },
    {
      "anonymous": false,
      "inputs": [
        {
          "indexed": true,
          "internalType": "address",
          "name": "owner",
          "type": "address"
        },
        {
          "indexed": true,
          "internalType": "address",
          "name": "approved",
          "type": "address"
        },
        {
          "indexed": true,
          "internalType": "uint256",
          "name": "tokenId",
          "type": "uint256"
        }
      ],
      "name": "Approval",
      "type": "event"
    },
    {
      "anonymous": false,
      "inputs": [
        {
          "indexed": true,
          "internalType": "address",
          "name": "owner",
          "type": "address"
        },
        {
          "indexed": true,
          "internalType": "address",
          "name": "operator",
          "type": "address"
        },
        {
          "indexed": false,
          "internalType": "bool",
          "name": "approved",
          "type": "bool"
        }
      ],
      "name": "ApprovalForAll",
      "type": "event"
    },
    {
      "anonymous": false,
      "inputs": [
        {
          "indexed": true,
          "internalType": "address",
          "name": "from",
          "type": "address"
        },
        {
          "indexed": true,
          "internalType": "address",
          "name": "to",
          "type": "address"
        },
        {
          "indexed": true,
          "internalType": "uint256",
          "name": "tokenId",
          "type": "uint256"
        }
      ],
      "name": "Transfer",
      "type": "event"
    },
    {
      "inputs": [
        {
          "internalType": "address",
          "name": "to",
          "type": "address"
        },
        {
          "internalType": "uint256",
          "name": "tokenId",
          "type": "uint256"
        }
      ],
      "name": "approve",
      "outputs": [],
      "stateMutability": "nonpayable",
      "type": "function"
    },
    {
      "inputs": [
        {
          "internalType": "address",
          "name": "owner",
          "type": "address"
        }
      ],
      "name": "balanceOf",
      "outputs": [
        {
          "internalType": "uint256",
          "name": "",
          "type": "uint256"
        }
      ],
      "stateMutability": "view",
      "type": "function"
    },
    {
      "inputs": [
        {
          "internalType": "string",
          "name": "",
          "type": "string"
        }
      ],
      "name": "domains",
      "outputs": [
        {
          "internalType": "address",
          "name": "",
          "type": "address"
        }
      ],
      "stateMutability": "view",
      "type": "function"
    },
    {
      "inputs": [
        {
          "internalType": "string",
          "name": "name",
          "type": "string"
        }
      ],
      "name": "getAddress",
      "outputs": [
        {
          "internalType": "address",
          "name": "",
          "type": "address"
        }
      ],
      "stateMutability": "view",
      "type": "function"
    },
    {
      "inputs": [
        {
          "internalType": "uint256",
          "name": "tokenId",
          "type": "uint256"
        }
      ],
      "name": "getApproved",
      "outputs": [
        {
          "internalType": "address",
          "name": "",
          "type": "address"
        }
      ],
      "stateMutability": "view",
      "type": "function"
    },
    {
      "inputs": [
        {
          "internalType": "string",
          "name": "name",
          "type": "string"
        }
      ],
      "name": "getRecord",
      "outputs": [
        {
          "internalType": "string",
          "name": "",
          "type": "string"
        }
      ],
      "stateMutability": "view",
      "type": "function"
    },
    {
      "inputs": [
        {
          "internalType": "address",
          "name": "owner",
          "type": "address"
        },
        {
          "internalType": "address",
          "name": "operator",
          "type": "address"
        }
      ],
      "name": "isApprovedForAll",
      "outputs": [
        {
          "internalType": "bool",
          "name": "",
          "type": "bool"
        }
      ],
      "stateMutability": "view",
      "type": "function"
    },
    {
      "inputs": [],
      "name": "name",
      "outputs": [
        {
          "internalType": "string",
          "name": "",
          "type": "string"
        }
      ],
      "stateMutability": "view",
      "type": "function"
    },
    {
      "inputs": [
        {
          "internalType": "uint256",
          "name": "tokenId",
          "type": "uint256"
        }
      ],
      "name": "ownerOf",
      "outputs": [
        {
          "internalType": "address",
          "name": "",
          "type": "address"
        }
      ],
      "stateMutability": "view",
      "type": "function"
    },
    {
      "inputs": [
        {
          "internalType": "string",
          "name": "name",
          "type": "string"
        }
      ],
      "name": "price",
      "outputs": [
        {
          "internalType": "uint256",
          "name": "",
          "type": "uint256"
        }
      ],
      "stateMutability": "pure",
      "type": "function"
    },
    {
      "inputs": [
        {
          "internalType": "string",
          "name": "",
          "type": "string"
        }
      ],
      "name": "records",
      "outputs": [
        {
          "internalType": "string",
          "name": "",
          "type": "string"
        }
      ],
      "stateMutability": "view",
      "type": "function"
    },
    {
      "inputs": [
        {
          "internalType": "string",
          "name": "name",
          "type": "string"
        }
      ],
      "name": "register",
      "outputs": [],
      "stateMutability": "payable",
      "type": "function"
    },
    {
      "inputs": [
        {
          "internalType": "address",
          "name": "from",
          "type": "address"
        },
        {
          "internalType": "address",
          "name": "to",
          "type": "address"
        },
        {
          "internalType": "uint256",
          "name": "tokenId",
          "type": "uint256"
        }
      ],
      "name": "safeTransferFrom",
      "outputs": [],
      "stateMutability": "nonpayable",
      "type": "function"
    },
    {
      "inputs": [
        {
          "internalType": "address",
          "name": "from",
          "type": "address"
        },
        {
          "internalType": "address",
          "name": "to",
          "type": "address"
        },
        {
          "internalType": "uint256",
          "name": "tokenId",
          "type": "uint256"
        },
        {
          "internalType": "bytes",
          "name": "_data",
          "type": "bytes"
        }
      ],
      "name": "safeTransferFrom",
      "outputs": [],
      "stateMutability": "nonpayable",
      "type": "function"
    },
    {
      "inputs": [
        {
          "internalType": "address",
          "name": "operator",
          "type": "address"
        },
        {
          "internalType": "bool",
          "name": "approved",
          "type": "bool"
        }
      ],
      "name": "setApprovalForAll",
      "outputs": [],
      "stateMutability": "nonpayable",
      "type": "function"
    },
    {
      "inputs": [
        {
          "internalType": "string",
          "name": "name",
          "type": "string"
        },
        {
          "internalType": "string",
          "name": "record",
          "type": "string"
        }
      ],
      "name": "setRecord",
      "outputs": [],
      "stateMutability": "nonpayable",
      "type": "function"
    },
    {
      "inputs": [
        {
          "internalType": "bytes4",
          "name": "interfaceId",
          "type": "bytes4"
        }
      ],
      "name": "supportsInterface",
      "outputs": [
        {
          "internalType": "bool",
          "name": "",
          "type": "bool"
        }
      ],
      "stateMutability": "view",
      "type": "function"
    },
    {
      "inputs": [],
      "name": "symbol",
      "outputs": [
        {
          "internalType": "string",
          "name": "",
          "type": "string"
        }
      ],
      "stateMutability": "view",
      "type": "function"
    },
    {
      "inputs": [],
      "name": "tld",
      "outputs": [
        {
          "internalType": "string",
          "name": "",
          "type": "string"
        }
      ],
      "stateMutability": "view",
      "type": "function"
    },
    {
      "inputs": [
        {
          "internalType": "uint256",
          "name": "tokenId",
          "type": "uint256"
        }
      ],
      "name": "tokenURI",
      "outputs": [
        {
          "internalType": "string",
          "name": "",
          "type": "string"
        }
      ],
      "stateMutability": "view",
      "type": "function"
    },
    {
      "inputs": [
        {
          "internalType": "address",
          "name": "from",
          "type": "address"
        },
        {
          "internalType": "address",
          "name": "to",
          "type": "address"
        },
        {
          "internalType": "uint256",
          "name": "tokenId",
          "type": "uint256"
        }
      ],
      "name": "transferFrom",
      "outputs": [],
      "stateMutability": "nonpayable",
      "type": "function"
    }
  ],
  "bytecode": "0x608060405260405180610540016040528061051a8152602001620048f061051a9139600b9080519060200190620000389291906200026b565b5060405180608001604052806048815260200162004e0a60489139600c90805190602001906200006a9291906200026b565b5060405162004e5238038062004e5283398181016040528101906200009091906200038d565b6040518060400160405280601181526020017f4b4b20446f6d61696e20536572766963650000000000000000000000000000008152506040518060400160405280600381526020017f4b4b5300000000000000000000000000000000000000000000000000000000008152508160009080519060200190620001149291906200026b565b5080600190805190602001906200012d9291906200026b565b5050508060089080519060200190620001489291906200026b565b50620001956040518060400160405280601881526020017f2573206e616d652073657276696365206465706c6f7965640000000000000000815250826200019c60201b6200150a1760201c565b50620005da565b6200023e8282604051602401620001b592919062000413565b6040516020818303038152906040527f4b5c4277000000000000000000000000000000000000000000000000000000007bffffffffffffffffffffffffffffffffffffffffffffffffffffffff19166020820180517bffffffffffffffffffffffffffffffffffffffffffffffffffffffff83818316178352505050506200024260201b60201c565b5050565b60008151905060006a636f6e736f6c652e6c6f679050602083016000808483855afa5050505050565b8280546200027990620004ff565b90600052602060002090601f0160209004810192826200029d5760008555620002e9565b82601f10620002b857805160ff1916838001178555620002e9565b82800160010185558215620002e9579182015b82811115620002e8578251825591602001919060010190620002cb565b5b509050620002f89190620002fc565b5090565b5b8082111562000317576000816000905550600101620002fd565b5090565b6000620003326200032c8462000477565b6200044e565b9050828152602081018484840111156200034b57600080fd5b62000358848285620004c9565b509392505050565b600082601f8301126200037257600080fd5b8151620003848482602086016200031b565b91505092915050565b600060208284031215620003a057600080fd5b600082015167ffffffffffffffff811115620003bb57600080fd5b620003c98482850162000360565b91505092915050565b6000620003df82620004ad565b620003eb8185620004b8565b9350620003fd818560208601620004c9565b6200040881620005c9565b840191505092915050565b600060408201905081810360008301526200042f8185620003d2565b90508181036020830152620004458184620003d2565b90509392505050565b60006200045a6200046d565b905062000468828262000535565b919050565b6000604051905090565b600067ffffffffffffffff8211156200049557620004946200059a565b5b620004a082620005c9565b9050602081019050919050565b600081519050919050565b600082825260208201905092915050565b60005b83811015620004e9578082015181840152602081019050620004cc565b83811115620004f9576000848401525b50505050565b600060028204905060018216806200051857607f821691505b602082108114156200052f576200052e6200056b565b5b50919050565b6200054082620005c9565b810181811067ffffffffffffffff821117156200056257620005616200059a565b5b80604052505050565b7f4e487b7100000000000000000000000000000000000000000000000000000000600052602260045260246000fd5b7f4e487b7100000000000000000000000000000000000000000000000000000000600052604160045260246000fd5b6000601f19601f8301169050919050565b61430680620005ea6000396000f3fe60806040526004361061012a5760003560e01c80636352211e116100ab578063bf40fac11161006f578063bf40fac114610428578063c1880a9814610465578063c87b56dd1461048e578063e985e9c5146104cb578063f2c298be14610508578063fe2c6198146105245761012a565b80636352211e1461033157806370a082311461036e57806395d89b41146103ab578063a22cb465146103d6578063b88d4fde146103ff5761012a565b806323b872dd116100f257806323b872dd1461023a57806326449235146102635780632d551432146102a057806342842e0e146102cb578063541e771d146102f45761012a565b806301ffc9a71461012f57806306fdde031461016c578063081812fc14610197578063095ea7b3146101d457806311dd8845146101fd575b600080fd5b34801561013b57600080fd5b5061015660048036038101906101519190612cb5565b610561565b604051610163919061344b565b60405180910390f35b34801561017857600080fd5b50610181610643565b60405161018e9190613466565b60405180910390f35b3480156101a357600080fd5b506101be60048036038101906101b99190612e02565b6106d5565b6040516101cb91906133e4565b60405180910390f35b3480156101e057600080fd5b506101fb60048036038101906101f69190612c79565b61075a565b005b34801561020957600080fd5b50610224600480360381019061021f9190612d07565b610872565b6040516102319190613466565b60405180910390f35b34801561024657600080fd5b50610261600480360381019061025c9190612b73565b610925565b005b34801561026f57600080fd5b5061028a60048036038101906102859190612dc1565b610985565b60405161029791906133e4565b60405180910390f35b3480156102ac57600080fd5b506102b56109ce565b6040516102c29190613466565b60405180910390f35b3480156102d757600080fd5b506102f260048036038101906102ed9190612b73565b610a5c565b005b34801561030057600080fd5b5061031b60048036038101906103169190612dc1565b610a7c565b6040516103289190613466565b60405180910390f35b34801561033d57600080fd5b5061035860048036038101906103539190612e02565b610b32565b60405161036591906133e4565b60405180910390f35b34801561037a57600080fd5b5061039560048036038101906103909190612b0e565b610be4565b6040516103a29190613739565b60405180910390f35b3480156103b757600080fd5b506103c0610c9c565b6040516103cd9190613466565b60405180910390f35b3480156103e257600080fd5b506103fd60048036038101906103f89190612c3d565b610d2e565b005b34801561040b57600080fd5b5061042660048036038101906104219190612bc2565b610d44565b005b34801561043457600080fd5b5061044f600480360381019061044a9190612d07565b610da6565b60405161045c91906133e4565b60405180910390f35b34801561047157600080fd5b5061048c60048036038101906104879190612d4c565b610df1565b005b34801561049a57600080fd5b506104b560048036038101906104b09190612e02565b610e9f565b6040516104c29190613466565b60405180910390f35b3480156104d757600080fd5b506104f260048036038101906104ed9190612b37565b610ff1565b6040516104ff919061344b565b60405180910390f35b610522600480360381019061051d9190612d07565b611085565b005b34801561053057600080fd5b5061054b60048036038101906105469190612d07565b611468565b6040516105589190613739565b60405180910390f35b60007f80ac58cd000000000000000000000000000000000000000000000000000000007bffffffffffffffffffffffffffffffffffffffffffffffffffffffff1916827bffffffffffffffffffffffffffffffffffffffffffffffffffffffff1916148061062c57507f5b5e139f000000000000000000000000000000000000000000000000000000007bffffffffffffffffffffffffffffffffffffffffffffffffffffffff1916827bffffffffffffffffffffffffffffffffffffffffffffffffffffffff1916145b8061063c575061063b826115a6565b5b9050919050565b606060008054610652906139fe565b80601f016020809104026020016040519081016040528092919081815260200182805461067e906139fe565b80156106cb5780601f106106a0576101008083540402835291602001916106cb565b820191906000526020600020905b8154815290600101906020018083116106ae57829003601f168201915b5050505050905090565b60006106e082611610565b61071f576040517f08c379a000000000000000000000000000000000000000000000000000000000815260040161071690613699565b60405180910390fd5b6004600083815260200190815260200160002060009054906101000a900473ffffffffffffffffffffffffffffffffffffffff169050919050565b600061076582610b32565b90508073ffffffffffffffffffffffffffffffffffffffff168373ffffffffffffffffffffffffffffffffffffffff1614156107d6576040517f08c379a00000000000000000000000000000000000000000000000000000000081526004016107cd906136f9565b60405180910390fd5b8073ffffffffffffffffffffffffffffffffffffffff166107f561167c565b73ffffffffffffffffffffffffffffffffffffffff16148061082457506108238161081e61167c565b610ff1565b5b610863576040517f08c379a000000000000000000000000000000000000000000000000000000000815260040161085a906135d9565b60405180910390fd5b61086d8383611684565b505050565b6060600a83836040516108869291906132c4565b9081526020016040518091039020805461089f906139fe565b80601f01602080910402602001604051908101604052809291908181526020018280546108cb906139fe565b80156109185780601f106108ed57610100808354040283529160200191610918565b820191906000526020600020905b8154815290600101906020018083116108fb57829003601f168201915b5050505050905092915050565b61093661093061167c565b8261173d565b610975576040517f08c379a000000000000000000000000000000000000000000000000000000000815260040161096c90613719565b60405180910390fd5b61098083838361181b565b505050565b6009818051602081018201805184825260208301602085012081835280955050505050506000915054906101000a900473ffffffffffffffffffffffffffffffffffffffff1681565b600880546109db906139fe565b80601f0160208091040260200160405190810160405280929190818152602001828054610a07906139fe565b8015610a545780601f10610a2957610100808354040283529160200191610a54565b820191906000526020600020905b815481529060010190602001808311610a3757829003601f168201915b505050505081565b610a7783838360405180602001604052806000815250610d44565b505050565b600a818051602081018201805184825260208301602085012081835280955050505050506000915090508054610ab1906139fe565b80601f0160208091040260200160405190810160405280929190818152602001828054610add906139fe565b8015610b2a5780601f10610aff57610100808354040283529160200191610b2a565b820191906000526020600020905b815481529060010190602001808311610b0d57829003601f168201915b505050505081565b6000806002600084815260200190815260200160002060009054906101000a900473ffffffffffffffffffffffffffffffffffffffff169050600073ffffffffffffffffffffffffffffffffffffffff168173ffffffffffffffffffffffffffffffffffffffff161415610bdb576040517f08c379a0000000000000000000000000000000000000000000000000000000008152600401610bd290613619565b60405180910390fd5b80915050919050565b60008073ffffffffffffffffffffffffffffffffffffffff168273ffffffffffffffffffffffffffffffffffffffff161415610c55576040517f08c379a0000000000000000000000000000000000000000000000000000000008152600401610c4c906135f9565b60405180910390fd5b600360008373ffffffffffffffffffffffffffffffffffffffff1673ffffffffffffffffffffffffffffffffffffffff168152602001908152602001600020549050919050565b606060018054610cab906139fe565b80601f0160208091040260200160405190810160405280929190818152602001828054610cd7906139fe565b8015610d245780601f10610cf957610100808354040283529160200191610d24565b820191906000526020600020905b815481529060010190602001808311610d0757829003601f168201915b5050505050905090565b610d40610d3961167c565b8383611a82565b5050565b610d55610d4f61167c565b8361173d565b610d94576040517f08c379a0000000000000000000000000000000000000000000000000000000008152600401610d8b90613719565b60405180910390fd5b610da084848484611bef565b50505050565b600060098383604051610dba9291906132c4565b908152602001604051809103902060009054906101000a900473ffffffffffffffffffffffffffffffffffffffff16905092915050565b3373ffffffffffffffffffffffffffffffffffffffff1660098585604051610e1a9291906132c4565b908152602001604051809103902060009054906101000a900473ffffffffffffffffffffffffffffffffffffffff1673ffffffffffffffffffffffffffffffffffffffff1614610e6957600080fd5b8181600a8686604051610e7d9291906132c4565b90815260200160405180910390209190610e98929190612862565b5050505050565b6060610eaa82611610565b610ee9576040517f08c379a0000000000000000000000000000000000000000000000000000000008152600401610ee090613679565b60405180910390fd5b6000600660008481526020019081526020016000208054610f09906139fe565b80601f0160208091040260200160405190810160405280929190818152602001828054610f35906139fe565b8015610f825780601f10610f5757610100808354040283529160200191610f82565b820191906000526020600020905b815481529060010190602001808311610f6557829003601f168201915b505050505090506000610f93611c4b565b9050600081511415610fa9578192505050610fec565b600082511115610fde578082604051602001610fc692919061330e565b60405160208183030381529060405292505050610fec565b610fe784611c62565b925050505b919050565b6000600560008473ffffffffffffffffffffffffffffffffffffffff1673ffffffffffffffffffffffffffffffffffffffff16815260200190815260200160002060008373ffffffffffffffffffffffffffffffffffffffff1673ffffffffffffffffffffffffffffffffffffffff16815260200190815260200160002060009054906101000a900460ff16905092915050565b600073ffffffffffffffffffffffffffffffffffffffff16600983836040516110af9291906132c4565b908152602001604051809103902060009054906101000a900473ffffffffffffffffffffffffffffffffffffffff1673ffffffffffffffffffffffffffffffffffffffff16146110fe57600080fd5b600061110a8383611468565b90508034101561114f576040517f08c379a0000000000000000000000000000000000000000000000000000000008152600401611146906136d9565b60405180910390fd5b600083836008604051602001611167939291906132dd565b60405160208183030381529060405290506000600b8585600c6040516020016111939493929190613332565b604051602081830303815290604052905060006111b06007611d09565b9050600061120187878080601f016020809104026020016040519081016040528093929190818152602001838380828437600081840152601f19601f82011690508083019250505050505050611d17565b9050600061120e82611ef2565b90506113026040518060600160405280603181526020016142276031913989898080601f016020809104026020016040519081016040528093929190818152602001838380828437600081840152601f19601f820116905080830192505050505050506008805461127e906139fe565b80601f01602080910402602001604051908101604052809291908181526020018280546112aa906139fe565b80156112f75780601f106112cc576101008083540402835291602001916112f7565b820191906000526020600020905b8154815290600101906020018083116112da57829003601f168201915b50505050508661209f565b60006113388661131187612141565b8460405160200161132493929190613365565b604051602081830303815290604052612141565b905060008160405160200161134d91906133c2565b604051602081830303815290604052905061137f6040518060600160405280603981526020016141ee603991396122ff565b6113be6040518060400160405280600e81526020017f46696e616c20746f6b656e5552490000000000000000000000000000000000008152508261150a565b6113df604051806060016040528060398152602001614258603991396122ff565b6113e93386612398565b6113f385826123b6565b3360098b8b6040516114069291906132c4565b908152602001604051809103902060006101000a81548173ffffffffffffffffffffffffffffffffffffffff021916908373ffffffffffffffffffffffffffffffffffffffff16021790555061145c600761242a565b50505050505050505050565b6000806114b884848080601f016020809104026020016040519081016040528093929190818152602001838380828437600081840152601f19601f82011690508083019250505050505050611d17565b9050600081116114c757600080fd5b60038114156114e0576601c6bf52634000915050611504565b60048114156114f957660110d9316ec000915050611504565b655af3107a40009150505b92915050565b6115a28282604051602401611520929190613488565b6040516020818303038152906040527f4b5c4277000000000000000000000000000000000000000000000000000000007bffffffffffffffffffffffffffffffffffffffffffffffffffffffff19166020820180517bffffffffffffffffffffffffffffffffffffffffffffffffffffffff8381831617835250505050612440565b5050565b60007f01ffc9a7000000000000000000000000000000000000000000000000000000007bffffffffffffffffffffffffffffffffffffffffffffffffffffffff1916827bffffffffffffffffffffffffffffffffffffffffffffffffffffffff1916149050919050565b60008073ffffffffffffffffffffffffffffffffffffffff166002600084815260200190815260200160002060009054906101000a900473ffffffffffffffffffffffffffffffffffffffff1673ffffffffffffffffffffffffffffffffffffffff1614159050919050565b600033905090565b816004600083815260200190815260200160002060006101000a81548173ffffffffffffffffffffffffffffffffffffffff021916908373ffffffffffffffffffffffffffffffffffffffff160217905550808273ffffffffffffffffffffffffffffffffffffffff166116f783610b32565b73ffffffffffffffffffffffffffffffffffffffff167f8c5be1e5ebec7d5bd14f71427d1e84f3dd0314c0f7b2291e5b200ac8c7c3b92560405160405180910390a45050565b600061174882611610565b611787576040517f08c379a000000000000000000000000000000000000000000000000000000000815260040161177e906135b9565b60405180910390fd5b600061179283610b32565b90508073ffffffffffffffffffffffffffffffffffffffff168473ffffffffffffffffffffffffffffffffffffffff1614806117d457506117d38185610ff1565b5b8061181257508373ffffffffffffffffffffffffffffffffffffffff166117fa846106d5565b73ffffffffffffffffffffffffffffffffffffffff16145b91505092915050565b8273ffffffffffffffffffffffffffffffffffffffff1661183b82610b32565b73ffffffffffffffffffffffffffffffffffffffff1614611891576040517f08c379a000000000000000000000000000000000000000000000000000000000815260040161188890613539565b60405180910390fd5b600073ffffffffffffffffffffffffffffffffffffffff168273ffffffffffffffffffffffffffffffffffffffff161415611901576040517f08c379a00000000000000000000000000000000000000000000000000000000081526004016118f890613579565b60405180910390fd5b61190c838383612469565b611917600082611684565b6001600360008573ffffffffffffffffffffffffffffffffffffffff1673ffffffffffffffffffffffffffffffffffffffff16815260200190815260200160002060008282546119679190613914565b925050819055506001600360008473ffffffffffffffffffffffffffffffffffffffff1673ffffffffffffffffffffffffffffffffffffffff16815260200190815260200160002060008282546119be9190613833565b92505081905550816002600083815260200190815260200160002060006101000a81548173ffffffffffffffffffffffffffffffffffffffff021916908373ffffffffffffffffffffffffffffffffffffffff160217905550808273ffffffffffffffffffffffffffffffffffffffff168473ffffffffffffffffffffffffffffffffffffffff167fddf252ad1be2c89b69c2b068fc378daa952ba7f163c4a11628f55a4df523b3ef60405160405180910390a4611a7d83838361246e565b505050565b8173ffffffffffffffffffffffffffffffffffffffff168373ffffffffffffffffffffffffffffffffffffffff161415611af1576040517f08c379a0000000000000000000000000000000000000000000000000000000008152600401611ae890613599565b60405180910390fd5b80600560008573ffffffffffffffffffffffffffffffffffffffff1673ffffffffffffffffffffffffffffffffffffffff16815260200190815260200160002060008473ffffffffffffffffffffffffffffffffffffffff1673ffffffffffffffffffffffffffffffffffffffff16815260200190815260200160002060006101000a81548160ff0219169083151502179055508173ffffffffffffffffffffffffffffffffffffffff168373ffffffffffffffffffffffffffffffffffffffff167f17307eab39ab6107e8899845ad3d59bd9653f200f220920489ca2b5937696c3183604051611be2919061344b565b60405180910390a3505050565b611bfa84848461181b565b611c0684848484612473565b611c45576040517f08c379a0000000000000000000000000000000000000000000000000000000008152600401611c3c90613519565b60405180910390fd5b50505050565b606060405180602001604052806000815250905090565b6060611c6d82611610565b611cac576040517f08c379a0000000000000000000000000000000000000000000000000000000008152600401611ca3906136b9565b60405180910390fd5b6000611cb6611c4b565b90506000815111611cd65760405180602001604052806000815250611d01565b80611ce084611ef2565b604051602001611cf192919061330e565b6040516020818303038152906040525b915050919050565b600081600001549050919050565b60008060008084519050600092505b80821015611ee7576000858381518110611d69577f4e487b7100000000000000000000000000000000000000000000000000000000600052603260045260246000fd5b602001015160f81c60f81b9050608060f81b817effffffffffffffffffffffffffffffffffffffffffffffffffffffffffffff19161015611db857600183611db19190613833565b9250611ed3565b60e060f81b817effffffffffffffffffffffffffffffffffffffffffffffffffffffffffffff19161015611dfa57600283611df39190613833565b9250611ed2565b60f060f81b817effffffffffffffffffffffffffffffffffffffffffffffffffffffffffffff19161015611e3c57600383611e359190613833565b9250611ed1565b60f8801b817effffffffffffffffffffffffffffffffffffffffffffffffffffffffffffff19161015611e7d57600483611e769190613833565b9250611ed0565b60fc60f81b817effffffffffffffffffffffffffffffffffffffffffffffffffffffffffffff19161015611ebf57600583611eb89190613833565b9250611ecf565b600683611ecc9190613833565b92505b5b5b5b5b508280611edf90613a61565b935050611d26565b829350505050919050565b60606000821415611f3a576040518060400160405280600181526020017f3000000000000000000000000000000000000000000000000000000000000000815250905061209a565b600082905060005b60008214611f6c578080611f5590613a61565b915050600a82611f659190613889565b9150611f42565b60008167ffffffffffffffff811115611fae577f4e487b7100000000000000000000000000000000000000000000000000000000600052604160045260246000fd5b6040519080825280601f01601f191660200182016040528015611fe05781602001600182028036833780820191505090505b5090505b6000851461209357600182611ff99190613914565b9150600a856120089190613aaa565b60306120149190613833565b60f81b818381518110612050577f4e487b7100000000000000000000000000000000000000000000000000000000600052603260045260246000fd5b60200101907effffffffffffffffffffffffffffffffffffffffffffffffffffffffffffff1916908160001a905350600a8561208c9190613889565b9450611fe4565b8093505050505b919050565b61213b848484846040516024016120b994939291906134bf565b6040516020818303038152906040527f9fd009f5000000000000000000000000000000000000000000000000000000007bffffffffffffffffffffffffffffffffffffffffffffffffffffffff19166020820180517bffffffffffffffffffffffffffffffffffffffffffffffffffffffff8381831617835250505050612440565b50505050565b6060600082519050600081141561216a57604051806020016040528060008152509150506122fa565b6000600360028361217b9190613833565b6121859190613889565b600461219191906138ba565b905060006020826121a29190613833565b67ffffffffffffffff8111156121e1577f4e487b7100000000000000000000000000000000000000000000000000000000600052604160045260246000fd5b6040519080825280601f01601f1916602001820160405280156122135781602001600182028036833780820191505090505b5090506000604051806060016040528060408152602001614291604091399050600181016020830160005b868110156122b75760038101905062ffffff818a015116603f8160121c168401518060081b905060ff603f83600c1c1686015116810190508060081b905060ff603f8360061c1686015116810190508060081b905060ff603f831686015116810190508060e01b9050808452600484019350505061223e565b5060038606600181146122d157600281146122e1576122ec565b613d3d60f01b60028303526122ec565b603d60f81b60018303525b508484525050819450505050505b919050565b612395816040516024016123139190613466565b6040516020818303038152906040527f41304fac000000000000000000000000000000000000000000000000000000007bffffffffffffffffffffffffffffffffffffffffffffffffffffffff19166020820180517bffffffffffffffffffffffffffffffffffffffffffffffffffffffff8381831617835250505050612440565b50565b6123b282826040518060200160405280600081525061260a565b5050565b6123bf82611610565b6123fe576040517f08c379a00000000000000000000000000000000000000000000000000000000081526004016123f590613639565b60405180910390fd5b806006600084815260200190815260200160002090805190602001906124259291906128e8565b505050565b6001816000016000828254019250508190555050565b60008151905060006a636f6e736f6c652e6c6f679050602083016000808483855afa5050505050565b505050565b505050565b60006124948473ffffffffffffffffffffffffffffffffffffffff16612665565b156125fd578373ffffffffffffffffffffffffffffffffffffffff1663150b7a026124bd61167c565b8786866040518563ffffffff1660e01b81526004016124df94939291906133ff565b602060405180830381600087803b1580156124f957600080fd5b505af192505050801561252a57506040513d601f19601f820116820180604052508101906125279190612cde565b60015b6125ad573d806000811461255a576040519150601f19603f3d011682016040523d82523d6000602084013e61255f565b606091505b506000815114156125a5576040517f08c379a000000000000000000000000000000000000000000000000000000000815260040161259c90613519565b60405180910390fd5b805181602001fd5b63150b7a0260e01b7bffffffffffffffffffffffffffffffffffffffffffffffffffffffff1916817bffffffffffffffffffffffffffffffffffffffffffffffffffffffff191614915050612602565b600190505b949350505050565b6126148383612688565b6126216000848484612473565b612660576040517f08c379a000000000000000000000000000000000000000000000000000000000815260040161265790613519565b60405180910390fd5b505050565b6000808273ffffffffffffffffffffffffffffffffffffffff163b119050919050565b600073ffffffffffffffffffffffffffffffffffffffff168273ffffffffffffffffffffffffffffffffffffffff1614156126f8576040517f08c379a00000000000000000000000000000000000000000000000000000000081526004016126ef90613659565b60405180910390fd5b61270181611610565b15612741576040517f08c379a000000000000000000000000000000000000000000000000000000000815260040161273890613559565b60405180910390fd5b61274d60008383612469565b6001600360008473ffffffffffffffffffffffffffffffffffffffff1673ffffffffffffffffffffffffffffffffffffffff168152602001908152602001600020600082825461279d9190613833565b92505081905550816002600083815260200190815260200160002060006101000a81548173ffffffffffffffffffffffffffffffffffffffff021916908373ffffffffffffffffffffffffffffffffffffffff160217905550808273ffffffffffffffffffffffffffffffffffffffff16600073ffffffffffffffffffffffffffffffffffffffff167fddf252ad1be2c89b69c2b068fc378daa952ba7f163c4a11628f55a4df523b3ef60405160405180910390a461285e6000838361246e565b5050565b82805461286e906139fe565b90600052602060002090601f01602090048101928261289057600085556128d7565b82601f106128a957803560ff19168380011785556128d7565b828001600101855582156128d7579182015b828111156128d65782358255916020019190600101906128bb565b5b5090506128e4919061296e565b5090565b8280546128f4906139fe565b90600052602060002090601f016020900481019282612916576000855561295d565b82601f1061292f57805160ff191683800117855561295d565b8280016001018555821561295d579182015b8281111561295c578251825591602001919060010190612941565b5b50905061296a919061296e565b5090565b5b8082111561298757600081600090555060010161296f565b5090565b600061299e61299984613779565b613754565b9050828152602081018484840111156129b657600080fd5b6129c18482856139bc565b509392505050565b60006129dc6129d7846137aa565b613754565b9050828152602081018484840111156129f457600080fd5b6129ff8482856139bc565b509392505050565b600081359050612a1681614191565b92915050565b600081359050612a2b816141a8565b92915050565b600081359050612a40816141bf565b92915050565b600081519050612a55816141bf565b92915050565b600082601f830112612a6c57600080fd5b8135612a7c84826020860161298b565b91505092915050565b60008083601f840112612a9757600080fd5b8235905067ffffffffffffffff811115612ab057600080fd5b602083019150836001820283011115612ac857600080fd5b9250929050565b600082601f830112612ae057600080fd5b8135612af08482602086016129c9565b91505092915050565b600081359050612b08816141d6565b92915050565b600060208284031215612b2057600080fd5b6000612b2e84828501612a07565b91505092915050565b60008060408385031215612b4a57600080fd5b6000612b5885828601612a07565b9250506020612b6985828601612a07565b9150509250929050565b600080600060608486031215612b8857600080fd5b6000612b9686828701612a07565b9350506020612ba786828701612a07565b9250506040612bb886828701612af9565b9150509250925092565b60008060008060808587031215612bd857600080fd5b6000612be687828801612a07565b9450506020612bf787828801612a07565b9350506040612c0887828801612af9565b925050606085013567ffffffffffffffff811115612c2557600080fd5b612c3187828801612a5b565b91505092959194509250565b60008060408385031215612c5057600080fd5b6000612c5e85828601612a07565b9250506020612c6f85828601612a1c565b9150509250929050565b60008060408385031215612c8c57600080fd5b6000612c9a85828601612a07565b9250506020612cab85828601612af9565b9150509250929050565b600060208284031215612cc757600080fd5b6000612cd584828501612a31565b91505092915050565b600060208284031215612cf057600080fd5b6000612cfe84828501612a46565b91505092915050565b60008060208385031215612d1a57600080fd5b600083013567ffffffffffffffff811115612d3457600080fd5b612d4085828601612a85565b92509250509250929050565b60008060008060408587031215612d6257600080fd5b600085013567ffffffffffffffff811115612d7c57600080fd5b612d8887828801612a85565b9450945050602085013567ffffffffffffffff811115612da757600080fd5b612db387828801612a85565b925092505092959194509250565b600060208284031215612dd357600080fd5b600082013567ffffffffffffffff811115612ded57600080fd5b612df984828501612acf565b91505092915050565b600060208284031215612e1457600080fd5b6000612e2284828501612af9565b91505092915050565b612e3481613948565b82525050565b612e438161395a565b82525050565b6000612e54826137f0565b612e5e8185613806565b9350612e6e8185602086016139cb565b612e7781613b97565b840191505092915050565b6000612e8e8385613828565b9350612e9b8385846139bc565b82840190509392505050565b6000612eb2826137fb565b612ebc8185613817565b9350612ecc8185602086016139cb565b612ed581613b97565b840191505092915050565b6000612eeb826137fb565b612ef58185613828565b9350612f058185602086016139cb565b80840191505092915050565b60008154612f1e816139fe565b612f288186613828565b94506001821660008114612f435760018114612f5457612f87565b60ff19831686528186019350612f87565b612f5d856137db565b60005b83811015612f7f57815481890152600182019150602081019050612f60565b838801955050505b50505092915050565b6000612f9d605983613828565b9150612fa882613ba8565b605982019050919050565b6000612fc0603283613817565b9150612fcb82613c1d565b604082019050919050565b6000612fe3602583613817565b9150612fee82613c6c565b604082019050919050565b6000613006601c83613817565b915061301182613cbb565b602082019050919050565b6000613029602483613817565b915061303482613ce4565b604082019050919050565b600061304c601983613817565b915061305782613d33565b602082019050919050565b600061306f602c83613817565b915061307a82613d5c565b604082019050919050565b6000613092603883613817565b915061309d82613dab565b604082019050919050565b60006130b5600183613828565b91506130c082613dfa565b600182019050919050565b60006130d8602a83613817565b91506130e382613e23565b604082019050919050565b60006130fb602983613817565b915061310682613e72565b604082019050919050565b600061311e602e83613817565b915061312982613ec1565b604082019050919050565b6000613141600283613828565b915061314c82613f10565b600282019050919050565b6000613164602083613817565b915061316f82613f39565b602082019050919050565b6000613187603183613817565b915061319282613f62565b604082019050919050565b60006131aa602c83613817565b91506131b582613fb1565b604082019050919050565b60006131cd602f83613817565b91506131d882614000565b604082019050919050565b60006131f0601583613817565b91506131fb8261404f565b602082019050919050565b6000613213600a83613828565b915061321e82614078565b600a82019050919050565b6000613236602183613817565b9150613241826140a1565b604082019050919050565b6000613259601d83613828565b9150613264826140f0565b601d82019050919050565b600061327c600c83613828565b915061328782614119565b600c82019050919050565b600061329f603183613817565b91506132aa82614142565b604082019050919050565b6132be816139b2565b82525050565b60006132d1828486612e82565b91508190509392505050565b60006132ea828587612e82565b91506132f5826130a8565b91506133018284612f11565b9150819050949350505050565b600061331a8285612ee0565b91506133268284612ee0565b91508190509392505050565b600061333e8287612f11565b915061334b828587612e82565b91506133578284612f11565b915081905095945050505050565b600061337082613206565b915061337c8286612ee0565b915061338782612f90565b91506133938285612ee0565b915061339e8261326f565b91506133aa8284612ee0565b91506133b582613134565b9150819050949350505050565b60006133cd8261324c565b91506133d98284612ee0565b915081905092915050565b60006020820190506133f96000830184612e2b565b92915050565b60006080820190506134146000830187612e2b565b6134216020830186612e2b565b61342e60408301856132b5565b81810360608301526134408184612e49565b905095945050505050565b60006020820190506134606000830184612e3a565b92915050565b600060208201905081810360008301526134808184612ea7565b905092915050565b600060408201905081810360008301526134a28185612ea7565b905081810360208301526134b68184612ea7565b90509392505050565b600060808201905081810360008301526134d98187612ea7565b905081810360208301526134ed8186612ea7565b905081810360408301526135018185612ea7565b905061351060608301846132b5565b95945050505050565b6000602082019050818103600083015261353281612fb3565b9050919050565b6000602082019050818103600083015261355281612fd6565b9050919050565b6000602082019050818103600083015261357281612ff9565b9050919050565b600060208201905081810360008301526135928161301c565b9050919050565b600060208201905081810360008301526135b28161303f565b9050919050565b600060208201905081810360008301526135d281613062565b9050919050565b600060208201905081810360008301526135f281613085565b9050919050565b60006020820190508181036000830152613612816130cb565b9050919050565b60006020820190508181036000830152613632816130ee565b9050919050565b6000602082019050818103600083015261365281613111565b9050919050565b6000602082019050818103600083015261367281613157565b9050919050565b600060208201905081810360008301526136928161317a565b9050919050565b600060208201905081810360008301526136b28161319d565b9050919050565b600060208201905081810360008301526136d2816131c0565b9050919050565b600060208201905081810360008301526136f2816131e3565b9050919050565b6000602082019050818103600083015261371281613229565b9050919050565b6000602082019050818103600083015261373281613292565b9050919050565b600060208201905061374e60008301846132b5565b92915050565b600061375e61376f565b905061376a8282613a30565b919050565b6000604051905090565b600067ffffffffffffffff82111561379457613793613b68565b5b61379d82613b97565b9050602081019050919050565b600067ffffffffffffffff8211156137c5576137c4613b68565b5b6137ce82613b97565b9050602081019050919050565b60008190508160005260206000209050919050565b600081519050919050565b600081519050919050565b600082825260208201905092915050565b600082825260208201905092915050565b600081905092915050565b600061383e826139b2565b9150613849836139b2565b9250827fffffffffffffffffffffffffffffffffffffffffffffffffffffffffffffffff0382111561387e5761387d613adb565b5b828201905092915050565b6000613894826139b2565b915061389f836139b2565b9250826138af576138ae613b0a565b5b828204905092915050565b60006138c5826139b2565b91506138d0836139b2565b9250817fffffffffffffffffffffffffffffffffffffffffffffffffffffffffffffffff048311821515161561390957613908613adb565b5b828202905092915050565b600061391f826139b2565b915061392a836139b2565b92508282101561393d5761393c613adb565b5b828203905092915050565b600061395382613992565b9050919050565b60008115159050919050565b60007fffffffff0000000000000000000000000000000000000000000000000000000082169050919050565b600073ffffffffffffffffffffffffffffffffffffffff82169050919050565b6000819050919050565b82818337600083830152505050565b60005b838110156139e95780820151818401526020810190506139ce565b838111156139f8576000848401525b50505050565b60006002820490506001821680613a1657607f821691505b60208210811415613a2a57613a29613b39565b5b50919050565b613a3982613b97565b810181811067ffffffffffffffff82111715613a5857613a57613b68565b5b80604052505050565b6000613a6c826139b2565b91507fffffffffffffffffffffffffffffffffffffffffffffffffffffffffffffffff821415613a9f57613a9e613adb565b5b600182019050919050565b6000613ab5826139b2565b9150613ac0836139b2565b925082613ad057613acf613b0a565b5b828206905092915050565b7f4e487b7100000000000000000000000000000000000000000000000000000000600052601160045260246000fd5b7f4e487b7100000000000000000000000000000000000000000000000000000000600052601260045260246000fd5b7f4e487b7100000000000000000000000000000000000000000000000000000000600052602260045260246000fd5b7f4e487b7100000000000000000000000000000000000000000000000000000000600052604160045260246000fd5b6000601f19601f8301169050919050565b7f222c20226465736372697074696f6e223a20224120646f6d61696e206f6e207460008201527f6865204b4b206e616d652073657276696365222c2022696d616765223a20226460208201527f6174613a696d6167652f7376672b786d6c3b6261736536342c00000000000000604082015250565b7f4552433732313a207472616e7366657220746f206e6f6e20455243373231526560008201527f63656976657220696d706c656d656e7465720000000000000000000000000000602082015250565b7f4552433732313a207472616e736665722066726f6d20696e636f72726563742060008201527f6f776e6572000000000000000000000000000000000000000000000000000000602082015250565b7f4552433732313a20746f6b656e20616c7265616479206d696e74656400000000600082015250565b7f4552433732313a207472616e7366657220746f20746865207a65726f2061646460008201527f7265737300000000000000000000000000000000000000000000000000000000602082015250565b7f4552433732313a20617070726f766520746f2063616c6c657200000000000000600082015250565b7f4552433732313a206f70657261746f7220717565727920666f72206e6f6e657860008201527f697374656e7420746f6b656e0000000000000000000000000000000000000000602082015250565b7f4552433732313a20617070726f76652063616c6c6572206973206e6f74206f7760008201527f6e6572206e6f7220617070726f76656420666f7220616c6c0000000000000000602082015250565b7f2e00000000000000000000000000000000000000000000000000000000000000600082015250565b7f4552433732313a2062616c616e636520717565727920666f7220746865207a6560008201527f726f206164647265737300000000000000000000000000000000000000000000602082015250565b7f4552433732313a206f776e657220717565727920666f72206e6f6e657869737460008201527f656e7420746f6b656e0000000000000000000000000000000000000000000000602082015250565b7f45524337323155524953746f726167653a2055524920736574206f66206e6f6e60008201527f6578697374656e7420746f6b656e000000000000000000000000000000000000602082015250565b7f227d000000000000000000000000000000000000000000000000000000000000600082015250565b7f4552433732313a206d696e7420746f20746865207a65726f2061646472657373600082015250565b7f45524337323155524953746f726167653a2055524920717565727920666f722060008201527f6e6f6e6578697374656e7420746f6b656e000000000000000000000000000000602082015250565b7f4552433732313a20617070726f76656420717565727920666f72206e6f6e657860008201527f697374656e7420746f6b656e0000000000000000000000000000000000000000602082015250565b7f4552433732314d657461646174613a2055524920717565727920666f72206e6f60008201527f6e6578697374656e7420746f6b656e0000000000000000000000000000000000602082015250565b7f4e6f7420656e6f756768204d6174696320706169640000000000000000000000600082015250565b7f7b226e616d65223a202200000000000000000000000000000000000000000000600082015250565b7f4552433732313a20617070726f76616c20746f2063757272656e74206f776e6560008201527f7200000000000000000000000000000000000000000000000000000000000000602082015250565b7f646174613a6170706c69636174696f6e2f6a736f6e3b6261736536342c000000600082015250565b7f222c226c656e677468223a220000000000000000000000000000000000000000600082015250565b7f4552433732313a207472616e736665722063616c6c6572206973206e6f74206f60008201527f776e6572206e6f7220617070726f766564000000000000000000000000000000602082015250565b61419a81613948565b81146141a557600080fd5b50565b6141b18161395a565b81146141bc57600080fd5b50565b6141c881613966565b81146141d357600080fd5b50565b6141df816139b2565b81146141ea57600080fd5b5056fe0a2d2d2d2d2d2d2d2d2d2d2d2d2d2d2d2d2d2d2d2d2d2d2d2d2d2d2d2d2d2d2d2d2d2d2d2d2d2d2d2d2d2d2d2d2d2d2d2d2d2d2d2d2d2d2d2d5265676973746572696e672025732e2573206f6e2074686520636f6e7472616374207769746820746f6b656e49442025642d2d2d2d2d2d2d2d2d2d2d2d2d2d2d2d2d2d2d2d2d2d2d2d2d2d2d2d2d2d2d2d2d2d2d2d2d2d2d2d2d2d2d2d2d2d2d2d2d2d2d2d2d2d2d2d0a4142434445464748494a4b4c4d4e4f505152535455565758595a6162636465666768696a6b6c6d6e6f707172737475767778797a303132333435363738392b2fa2646970667358221220a0979da2b2be814839d2ab9ab0f77e0d99e81f82a8c7ca37bd8ae26ba1d7dca064736f6c634300080400333c73766720786d6c6e733d22687474703a2f2f7777772e77332e6f72672f323030302f737667222077696474683d2232373022206865696768743d22323730222066696c6c3d226e6f6e65223e3c706174682066696c6c3d2275726c282361292220643d224d302030683237307632373048307a222f3e3c646566733e3c66696c7465722069643d22622220636f6c6f722d696e746572706f6c6174696f6e2d66696c746572733d2273524742222066696c746572556e6974733d227573657253706163654f6e55736522206865696768743d22323730222077696474683d22323730223e3c666544726f70536861646f772064783d2230222064793d22312220737464446576696174696f6e3d22322220666c6f6f642d6f7061636974793d222e323235222077696474683d223230302522206865696768743d2232303025222f3e3c2f66696c7465723e3c2f646566733e3c706174682066696c6c3d22233030302220643d224d31342e3330312031342e34373568372e323633763136332e383437682d372e3236335631342e3437357a6d38352e333633203136342e31324c35392e3731372039362e3338372039392e3636342031342e3138763136342e3431357a6d37382e37373920302d33392e3934352d38322e3230382033392e3934352d38322e323037763136342e3431357a4d34372e3037352032312e3733386832302e3930344c34372e3037352036342e3732365632312e3733387a6d32302e393034203134392e3239394834372e303735762d34332e3031316c32302e3930342034332e3031317a4d33392e3831322031342e3437354837392e364c33392e3831322039362e3338375631342e3437357a4d37392e36203137382e334833392e3831325639362e3338374c37392e36203137382e337a6d34352e3834372d3135362e3536326832302e3930346c2d32302e3930342034322e3938385632312e3733387a6d32302e393035203134392e323939682d32302e393034762d34332e3031316c32302e3930342034332e3031317a4d3131382e3138342031342e3437356833392e3738376c2d33392e3738372038312e3931325631342e3437357a4d3135372e393731203137382e33682d33392e3738375639362e3338376c33392e3738372038312e3931337a222f3e3c646566733e3c6c696e6561724772616469656e742069643d2261222078313d2230222079313d2230222078323d22323730222079323d2232373022206772616469656e74556e6974733d227573657253706163654f6e557365223e3c73746f702073746f702d636f6c6f723d2223666665643231222f3e3c73746f70206f66667365743d2231222073746f702d636f6c6f723d2223666662353231222073746f702d6f7061636974793d222e3939222f3e3c2f6c696e6561724772616469656e743e3c2f646566733e3c7465787420746578742d616e63686f723d226d6964646c652220616c69676e6d656e742d626173656c696e653d226d6964646c652220783d223133352220793d223133352220666f6e742d73697a653d22323722207374726f6b652d77696474683d222e3222207374726f6b653d2223383838222066696c6c3d2223666666222066696c7465723d2275726c282362292220666f6e742d66616d696c793d22506c7573204a616b617274612053616e732c44656a6156752053616e732c4e6f746f20436f6c6f7220456d6f6a692c4170706c6520436f6c6f7220456d6f6a692c73616e732d73657269662220666f6e742d7765696768743d22626f6c64223e3c2f746578743e3c7465787420783d223136352220793d223235352220666f6e742d73697a653d223735222066696c6c3d2223666666223e2e6b6b3c2f746578743e3c2f7376673e",
  "linkReferences": {},
  "deployedLinkReferences": {}
}